:020000040800F2
:10000000D8050020AD010008C32A0008DF1D000844
:10001000C12A0008B90200082D31000800000000C4
:10002000000000000000000000000000C72A0008D7
:100030007903000800000000C52A0008C92A00084A
:10004000C7010008C7010008C7010008C701000870
:10005000C7010008C7010008C7010008C701000860
:10006000C7010008C7010008C7010008BD02000859
:10007000C7010008C7010008C7010008C701000840
:10008000C9020008C7010008C701000800000000FD
:10009000000000000000000000000000C701000890
:1000A000C7010008C7010008C7010008C701000810
:1000B000C7010008C7010008C7010008E11D0008CA
:1000C000C7010008C7010008C7010008C7010008F0
:1000D000C7010008C7010008213100080000000026
:1000E000C7010008C7010008C701000800000000A0
:1000F000000000000000000000000000C701000830
:1001000000000000C7010008C7010008C70100087F
:1001100000000000000000000000000000000000DF
:10012000C7010008C7010008C7010008C70100088F
:10013000C7010008000000000000000000000000EF
:10014000000000000000000000000000C7010008DF
:10015000C7010008C7010008C7010008C70100085F
:10016000C7010008C70100080000000000000000EF
:10017000000000000000000000000000000000007F
:1001800000000000C701000800000000000000009F
:10019000C7010008C7010008DFF80CD000F07AF8AA
:1001A000004800476D310008D80500200648804708
:1001B00006480047FEE7FEE7FEE7FEE7FEE7FEE74C
:1001C000FEE7FEE7FEE7FEE74D2B00089901000879
:1001D0002DE9F05F0546002092469B46884606467C
:1001E000814640241BE0284641464746224600F00F
:1001F00041F853465A46C01A914110D31146184649
:10020000224600F028F82D1A67EB01084F462246D7
:100210000120002100F01FF817EB00094E41201EBD
:10022000A4F10104DFDC484631462A464346BDE8D6
:10023000F09FD2B201E000F8012B491EFBD27047BB
:100240000022F6E710B513460A4604461946FFF7A2
:10025000F0FF204610BD202A04DB203A00FA02F10C
:10026000002070479140C2F1200320FA03F31943A4
:1002700090407047202A04DB203A21FA02F0002146
:10028000704721FA02F3D040C2F1200291400843A6
:1002900019467047064C074D06E0E06840F0010340
:1002A00094E8070098471034AC42F6D3FFF778FF84
:1002B000B4330008D4330008FEE70000014800F022
:1002C00073B8000014010020014800F06DB8000070
:1002D0007401002001681823CAB2103AB2FBF3F28D
:1002E000054B6FF30901032A9B5CC36500D9091D07
:1002F00081650846704700009433000810B5014638
:1003000000208B698A6A4FF0C07453B1B3F5005F67
:1003100015D072B1012A0CD0022A0AD0032A09D1C1
:1003200004E01AB1012A06D0022A03D1C96AC90120
:1003300000D5012010BDC96AA142FAD010BD002A23
:10034000F7D0012AF2D0022AF3D0032AF3D010BD4D
:1003500030B50468256825F480252560046863604D
:100360008368402B036803D099600068C26030BD89
:100370009A600068C16030BD7047704790F83510D2
:10038000022903D08021416501207047052180F8B2
:1003900035100068016821F00101016000207047FC
:1003A00090F83500704700002DE9F84304464FF0FF
:1003B0000009CDF8009063484FF41651A56D006810
:1003C000B0FBF1F72E6894F85C10082000FA01F1F8
:1003D00031420FD021680A6852070BD50A6822F013
:1003E00004020A6094F85C108840A860606D40F0D8
:1003F0000100606594F85C104FF0010808FA01F004
:10040000304208D021684969090604D5A860606DAA
:1004100040F00200606594F85C100420884030428F
:1004200008D021680968890704D5A860606D40F08C
:100430000400606594F85C1010208840304218D0A9
:1004400021680968090714D5A86020680168490374
:1004500004D50068000308D5A16C07E00168C90550
:1004600003D4016821F008010160216C09B1204624
:10047000884794F85C1020208840304231D02168B1
:100480000968C9062DD5A86094F8350005282068AC
:10049000016806D0490347D5006800031DD4616C8C
:1004A0001CE021F0160101602068416921F0800103
:1004B0004161206C08B9A06C20B12068016821F06E
:1004C0000801016094F85C103F208840A86084F81F
:1004D000349084F83580216D1FE0E16B09B120462E
:1004E0008847606D00282BD0606DC00714D00520B0
:1004F00084F835002068016821F00101016000984E
:10050000401C0090B84203D820680068C007F6D1AC
:1005100084F8349084F83580E16C002910D001B063
:100520002046BDE8F04308470168C905D5D40168F5
:1005300021F01001016084F8349084F83580CCE714
:10054000BDE8F8831C0000202DE9F041044600F0CE
:1005500083F906465CB1002584F83450022084F803
:1005600035002068016821F0010101600DE00120E3
:10057000BDE8F08100F070F9801B052805D9202026
:100580006065032084F83500F2E720680068C00742
:10059000F0D12268116820480140D4E901031843D2
:1005A000D4E903363343184363691843A3691843F6
:1005B000E3691843236A18430843616A042903D195
:1005C000D4E90B1319430843106020684069666A38
:1005D00020F0070130460E43012704280CD1A06A01
:1005E0000643E06A40B12046FFF788FE20B1402074
:1005F000606584F83570BAE7206846612046FFF7E9
:1006000069FE94F85C203F2191408160656584F823
:1006100035700020ACE700003F8010F02DE9F0417C
:100620000446866D90F83400002501280DD0012085
:1006300084F8340094F835700020012F07D084F836
:10064000340002252846BDE8F0810220FBE702279E
:1006500084F8357060652046FFF77AFE94F85C10E8
:100660003F208840B0602068016841F016010160B9
:10067000206C20B12068016841F008010160206809
:10068000016841F001010160DCE7000070B504463B
:1006900000F0E2F80546601C02D0044800780444EB
:1006A00000F0DAF8401BA042FAD370BD1000002021
:1006B0002DE9F84F00224FF0010803254FF00F0EEF
:1006C0000B6808FA02F42340A34271D14E68012E50
:1006D00005D0022E03D0112E01D0122E15D186681E
:1006E000570005FA07FC26EA0C06D1F80CC00CFAF4
:1006F00007FC4CEA060CC0F808C04668A6430C7913
:10070000C4F30014944034434460C668570005FAAB
:1007100007FC8C6826EA0C06BC403443C4604C6875
:10072000022C01D0122C13D1D40800EB8404A34670
:10073000D4F8209054074FEAD46A0EFA0AF629EA50
:1007400006090E6906FA0AF646EA0906CBF82060A1
:1007500004680E7924EA0C0406F00306BE40264322
:1007600006604C68E40056D52E4C266846F4804658
:100770002660246822F0030604F4804400942A4C86
:100780003444A446D4F808489607370F0EFA07F603
:10079000B443264EB04201D1002615E0244EB042AB
:1007A00001D1012610E0234EB04202D102260BE017
:1007B00031E0214EB04201D1032605E01F4EB04288
:1007C00001D1042600E00726BE402643CCF8086885
:1007D0001B4E34684F689C43FF0300D51C433460B4
:1007E000174E361D34684F689C43BF0300D51C4329
:1007F0003460134E083634684F689C43FF0200D5BE
:100800001C4334600E4E0C3634684F689C43BF0264
:1008100000D51C433460521C102AFFF451AFBDE8D0
:10082000F88F0000443802400030014000000240D0
:100830000004024000080240000C02400010024088
:10084000003C01400069084000D0012070470AB117
:10085000816170470904FBE7014880687047000028
:1008600010000020704770472DE9F0410268002415
:100870005168C56A90F83E3090F83D60102B1CD04E
:10088000402B1AD0036C002B7ED053694FF0280503
:10089000DB439F0779D4CF43BF0576D4016C01B108
:1008A000946990F83D3000219D430B467FD0C91ECE
:1008B000516180F83C30BDE8F081946953694FF490
:1008C0002A07DB435FEAC37C4FF02A4604D0BD42CF
:1008D000F1D0B542EFD010E0CD43AD050DD4C16AE3
:1008E000B94201D1012103E0C16AB14201D108211D
:1008F000C162BDE8F04101F027BE1D0716D4CD430B
:10090000AD0513D4416CC9B21161416B11B9826B51
:10091000002AD0D0C96B19B9816BC96B0029CAD024
:100920000068416841F400614160C4E79D0706D456
:10093000CD43AD0503D4BDE8F04101F079BDE443FA
:10094000526864074FEA025215D4002AB3DB1A0634
:1009500008D4CA43520505D45A0705D5BDE8F0416D
:1009600001F00ABD5A07A6D4C9438905A3D4BDE83E
:10097000F04101F0B7BC002A9DDB5A060CD4CA43F3
:10098000520509D45A0702E00FE023E00FE005D535
:10099000BDE8F04101F098BB5A078CD4C9438905E2
:1009A00089D4BDE8F04101F026BB94696DE7556834
:1009B00025F480655560E243540700D501211206F5
:1009C00001D5828900E0028B80F83C3092B2FFF7BB
:1009D0004AFF70E7DC0606D4CC43A40503D4BDE887
:1009E000F04101F02DBE212E27D0292E25D05C0606
:1009F00055D4CC43640552D45B0752D590F83D10D2
:100A0000438D002B91D01269436A1A70426A521CBE
:100A10004262428D521E4285428D002A85D12A298A
:100A2000D7D101684A6822F480624A6022210163BA
:100A300080F83D5000F0EEFA3DE71C0623D4CC438D
:100A4000640520D45B0720D590F83D10438D002B22
:100A5000BFD0436A1B781361426A521C4262428DC6
:100A6000521E4285428D002AB3D12929B1D1016895
:100A70004A6822F480624A602121016380F83D5077
:100A800000F0C9FA17E75B07A3D4C9438905A0D4CE
:100A9000418D00299DD0416A097811610AE05B0708
:100AA00097D4C943890594D4418D002991D0116907
:100AB000426A1170416A491C4162418D491E41855B
:100AC000F9E6704770B5040025D094F83D00002584
:100AD00020B984F83C50204600F044FA242084F8E1
:100AE0003D002068016821F0010101602068016873
:100AF00041F4004101602068016821F40041016077
:100B000000F0BEFB4D4A6168914201D84C4900E0BB
:100B10004C49884201D2012070BD4B492368B0FB8B
:100B2000F1F15E6826F03F060E435E606368934213
:100B300006D94FF4967359434FF47A73B1FBF3F12E
:100B40002368491C1E6A26F03F063143196261681A
:100B5000914210D84900401EB0FBF1F2521CC2F382
:100B60000B02042A01D2042022E0B0FBF1F0401C69
:100B7000C0F30B001CE0A268F2B301EBC10303EB6E
:100B80000116431EB3FBF6F35B1C43F480431B05C5
:100B900049D092B301EBC10202EB0111401EB0FB40
:100BA000F1F0401CC0F30B0040F4804040F40040E2
:100BB0002168CA694CF6FF739A431043C861D4E9AF
:100BC000071001432068026822F0C002114301604F
:100BD000D4E9030101432068826848F2FF339A4355
:100BE00011438160D4E9050108432168CA6822F0F5
:100BF000FF021043C86001E00EE016E020680168C3
:100C000041F0010101602564202084F83D00256346
:100C100084F83E50002070BD01EB4106431EB3FB3B
:100C2000F6F35B1CB3E70120C2E701EB4101401E74
:100C3000B0FBF1F0401CC0F30B00B7E7A086010049
:100C400080841E0000093D0040420F00704770473D
:100C5000704700002DE9F84F1F4690468A4604462B
:100C6000DDF82890FFF7F8FD054694F83D002028B0
:100C700075D1192301226C492046009501F0B4FD7D
:100C80000028F5D194F83C00012868D0012084F8B0
:100C90003C0020680168C90703D1016841F00101E7
:100CA00001602068016821F400610160222084F85D
:100CB0003D00102084F83E0000262664C4F82480FD
:100CC0006785608D20855948E0622B464A4651462B
:100CD000204601F043FA002878D1208D544F68B1A6
:100CE000012814D002282068016816D041F48061E0
:100CF0000160206841698069009087E0206841694F
:100D000081690091016841F4007101607EE0206812
:100D1000016821F480610160F0E721F480610160E5
:100D20002068016841F40061E2E7032848D80128FF
:100D30000AD0022814D04B4600223946204600959E
:100D400001F052FDD8BB27E02A464946204601F073
:100D5000CAFDA0BB20680069616A08704DE061E0CF
:100D60004B46002239462046009501F03DFD30BB40
:100D70002068016841F40071016020680069616ABF
:100D80000870606A401C6062218D491E2185618D5A
:100D9000491E618521682EE02068016821F4806188
:100DA000016020680069616A0870606A401C6062C6
:100DB000208D401E2085608D401E6085D0E705E0B7
:100DC0002A464946204601F08EFD10B10120BDE8BB
:100DD000F88F20680069616A0870606A401C606270
:100DE000218D491E2185618D491E618521684A69D1
:100DF000D24352070AD409690170606A401C6062DC
:100E0000208D401E2085608D401E6085208D00282D
:100E10008BD1202084F83D0084F83E6084F83C604B
:100E20000020D4E70220D2E7020010000000FFFFFC
:100E3000040001002DE9F84F1F4690468A460446FB
:100E4000DDF82890FFF708FD054694F83D002028BE
:100E50007FD11923012240492046009501F0C4FCAE
:100E6000002876D194F83C00012872D0012084F843
:100E70003C0020680168C90703D1016841F0010105
:100E800001602068016821F400610160212084F87C
:100E90003D00102084F83E0000262664C4F824801B
:100EA0006785608D20852D48E0622B464A46514675
:100EB000204601F0C9F990B9206841698069009025
:100EC00036E02A464946204601F040FD50B1206CEC
:100ED000042804D12068016841F4007101600120F8
:100EE000BDE8F88F606A216800780861606A401C7C
:100EF0006062618D491E6185218D491E89B22185FF
:100F000022685369DB435B070BD451B10078106151
:100F1000606A401C6062608D401E6085208D401EAE
:100F200020852A464946204601F038FC0028CED1CB
:100F3000208D0028C5D154F83D0B016841F40071A3
:100F40000160202004F81E09E67766770020C7E7D5
:100F5000FFE70220C4E70000020010000000FFFFCE
:100F60007047704770B586B0064614216846FFF793
:100F700067F92349306888423FD12248002501683B
:100F800041F0020101600068694600F0020005902E
:100F9000C0200090122001900120029003200390B5
:100FA000042004901848FFF783FB164810300168AE
:100FB00041F4001101600068154C00F40010059028
:100FC000124820604005C4E90105C013C4E903507C
:100FD0006561A561E561256220466562FFF7B4FAA7
:100FE00008B1FFF7CAF9B463002211461F20A663B7
:100FF00000F07AF81F2000F069F806B070BD00001C
:1010000000540040303802400004024010600240AA
:10101000140100207047704702488168027811442B
:1010200081607047100000200B4810B5016841F442
:1010300000710160016841F480610160016841F460
:1010400080710160032000F06FF8002000F006F8C6
:1010500000F024F8002010BD003C024070B50D4D9A
:1010600004464FF47A712878B1FBF0F00A49096818
:10107000B1FBF0F000F002FB48B9102C07D20022BF
:101080002146501E00F030F800206C6070BD012039
:1010900070BD0000100000201C0000200A4808B5A8
:1010A000016841F480410160006800F480400090D4
:1010B0000548001F016841F080510160006800F0A0
:1010C0008050009008BD000044380240002809DB31
:1010D00000F01F02012191404009800000F1E02052
:1010E000C0F8001170470000F0B40E4B1B680C46AE
:1010F000C3F30223C3F10705042D00D90425191DEC
:10110000072901D2002300E0DB1E012606FA05F1C3
:10111000491E214099409E40761E16403143F0BC46
:1011200002F005B80CED00E0064900F0070208687F
:101130004FF6FF03184040EA0220034A10430860BC
:10114000704700000CED00E00000FA052DE9F047C3
:101150000E46050065D0DFF81481D8F80000F7B21C
:1011600000F00F00B04207D288F80070D8F80000F5
:1011700000F00F00B04254D128683D4C810712D5D1
:10118000400703D5206840F4E0502060287800072D
:1011900003D5206840F4604020602068A96820F0F2
:1011A000F000084320602878C0072DD030496868D7
:1011B0000839012812D0022813D0032811D0096859
:1011C000890700292DDA216821F0030101432160FC
:1011D000FFF742FB814641F2883A0EE00968890335
:1011E000EFE709688901ECE7FFF736FBA0EB09019F
:1011F000514502D90320BDE8F0872068696800F0F6
:101200000C00B0EB810FEFD1D8F80010404601F090
:101210000F01B14207D90770006800F00F00B0421B
:1012200001D00120E7E72878400705D52068E96864
:1012300020F4E050084320602878000706D5206895
:10124000296920F4604040EAC100206000F038F8CD
:101250002168084AC1F30311515CC840064908607F
:1012600006480068FFF7FAFE0020C4E7003C024091
:10127000083802409C3300081C00002014000020A5
:101280000448054900680968044AC1F38221515C99
:10129000C84070471C00002008380240AC330008EA
:1012A0000448054900680968044AC1F34231515CA9
:1012B000C84070471C00002008380240AC330008CA
:1012C000154810B5006810F00C02144813D04110F6
:1012D000042A0FD0082A0ED10F4C241F226823683D
:1012E00002F03F025B0207D52068C0F38810A0FB24
:1012F000010106E0084610BD2168C1F38811A1FB79
:1013000000010023FEF764FF2168C1F30141491C7D
:101310004900B0FBF1F010BD083802400024F40091
:101320002DE9F84F04006ED02078DFF83C93C00719
:10133000A9F104054AD009F104000168C1F3810153
:10134000012908D00068C0F3810002280AD1D9F829
:101350000000400206D52868800337D56068002861
:10136000E1D033E06068B0F5803F10D0B0F5A02F39
:10137000286810D020F480302860286820F480206D
:1013800028606068A8B1FFF767FA06460DE0286894
:1013900040F48030F4E740F480202860F7E700BF95
:1013A000FFF75AFA801B642873D828688003F7D5A2
:1013B0000CE0FFF751FA064605E000BFFFF74CFAD4
:1013C000801B6428F0D828688003F7D42078DFF8E1
:1013D0009C8280074FF0000A3ED5A348001D01689B
:1013E00011F00C0F08D00068C0F3810002280BD167
:1013F000D9F80000400207D42868800716D5E068B5
:10140000012800D112E02BE1E068B8B10120C8F852
:101410000000FFF721FA064605E000BFFFF71CFABF
:10142000801B0228C0D828688007F7D52868216962
:1014300020F0F80040EAC10028600DE0C8F800A0E4
:10144000FFF70AFA064604E0FFF706FA801B0228B7
:101450001FD828688007F7D42078000722D5824E4D
:1014600083486169703671B101210160FFF7F4F9B9
:10147000074604E0FFF7F0F9C01B022809D83068DE
:101480008007F7D50EE0C0F800A0FFF7E5F90746A2
:1014900005E082E0FFF7E0F9C01B02287DD8306844
:1014A0008007F7D42078400768D5DFF8BCB1002763
:1014B0000BF13C0BDBF80000C0000BD4DBF8001094
:1014C00041F08051CBF80010DBF80000012700F05C
:1014D00080500090674E3068C00510D4306840F4EA
:1014E00080703060FFF7B8F9009005E0FFF7B4F9BD
:1014F0000099401A022850D83068C005F6D55A4ED7
:10150000A0686C3601280FD00528306810D020F074
:1015100001003060306820F004003060A068B8B18D
:10152000FFF79AF900900FE0306840F00100F4E70F
:1015300040F004003060F7E7FFF78EF90099411A98
:1015400041F28830814266D830688007F4D50EE0D9
:10155000FFF782F9009007E0FFF77EF90099411A42
:1015600041F28830814256D830688007F4D42FB1D8
:10157000DBF8001021F08051CBF80010A069C8B34F
:101580003949091D0968C1F3810102294AD002289D
:10159000504607D0C8F8600000E03CE0FFF75CF977
:1015A00004463BE04746C8F86000FFF755F9064699
:1015B00005E000BFFFF750F9801B02282BD82868F0
:1015C0008001F7D4D4E907010843A16A2A4A4908EF
:1015D00002EB0141626A41EA8211084394F82C103F
:1015E00040EA0161C9F8001001203866FFF734F9BC
:1015F000044606E036E000BFFFF72EF9001B022884
:1016000009D828688001F7D52CE000BFFFF724F93E
:10161000001B022802D90320BDE8F88F286880014A
:10162000F4D41FE00128F7D0D9F80000E26900F4F3
:101630008001914214D1226A00F03F0191420FD102
:1016400047F6C071626A0140914209D1A26A00F472
:101650004031914204D1E16A00F07060884201D0CB
:101660000120D9E70020D7E70438024000004742B4
:10167000800E4742007000400000FFFF10B5401E82
:10168000B0F1807F01D3012010BD4FF0E0246061F4
:101690000F21601701F04BFD0020A06107202061A1
:1016A000002010BD70B590F83C20012A2CD00124F8
:1016B00080F83C40022280F83D2003685A689D680B
:1016C00022F070060A6832435A60104B02689A4250
:1016D0000ED0B2F1804F0BD00D4B9A4208D00D4B7B
:1016E0009A4205D00C4B9A4202D00C4B9A4204D13C
:1016F000496825F080031943916080F83D4000213E
:1017000080F83C10084670BD022070BD000001400A
:101710000004004000080040000C00400040014070
:1017200010B5040003D094F83D0010B107E001208B
:1017300010BD002084F83C00204600F00DF8022087
:1017400084F83D00211D206801F00EFA012084F884
:101750003D00002010BD000008B50068B0F1804FCA
:1017600008D10548016841F001010160006800F0FE
:101770000100009008BD00004038024070B50446EA
:1017800090F83C00012817D0012584F83C50022035
:1017900084F83D002068826822F0770222F47F42BC
:1017A00082600868502830D00DDC20284DD005DC40
:1017B00098B310283BD148E0022070BD302844D0B7
:1017C000402834D139E0602828D0702806D0B0F500
:1017D000805F2CD0B0F5005F29D10AE0CB68D1E959
:1017E0000121206801F019FA2068816841F0770131
:1017F00009E0CB68D1E90121206801F00EFA2068E8
:10180000816841F48041816011E0CA6849682068BC
:1018100001F0B8FA5021206807E016E0CA6849686C
:10182000206801F0C0FA6021206801F000FA84F815
:101830003D50002084F83C0070BDCA6849682068AB
:1018400001F0A0FA40212068EFE722680146104627
:10185000EBE7000010B586B0044614216846FEF799
:10186000EFFC2068B0F1804F14D10B4800210268D2
:1018700042F001020260006800F0010005900220C1
:101880000090CDE901010120CDE90310694603482C
:10189000FEF70EFF06B010BD3038024000000240D7
:1018A00070B5044690F83C000D4601280DD0012685
:1018B00084F83C60022084F83D0042B1042A18D02C
:1018C000082A2AD00C2A4DD139E0022070BD2068A8
:1018D00001F0B6F92068816941F008018161206852
:1018E000816921F004018161206881692A691143BD
:1018F00011E0206801F0CCF92068816941F40061B1
:1019000081612068816921F4806181612068816939
:101910002A6941EA0221816124E0206801F0E4F9AA
:101920002068C16941F00801C1612068C16921F0E6
:101930000401C1612068C1692A69114311E020686E
:1019400001F0FEF92068C16941F40061C1612068BD
:10195000C16921F48061C1612068C1692A6941EAD5
:101960000221C16184F83D60002084F83C0070BD14
:1019700010B5040003D094F83D0010B107E0012039
:1019800010BD002084F83C00204600F00CF8022036
:1019900084F83D00211D206801F0E6F8012084F85C
:1019A0003D00002010BD704710B5044600680122BC
:1019B00001F026F909492068884203D1416C41F4BD
:1019C000004141642068816801F00701062903D0C5
:1019D000016841F001010160002010BD00000140DC
:1019E0007047000070B5026804461068D1685369FA
:1019F00010F00F0F52D003F0010501F490762E4342
:101A00005FD0C20705D0CA0503D5E26B42F00102E0
:101A1000E263420705D5DA0703D0E26B42F0020227
:101A2000E263820705D5DA0703D0E26B42F00402D5
:101A3000E263020707D501F020022A4303D0E26BDC
:101A400042F00802E263E26B002A33D0800604D53C
:101A5000880602D5204601F01FFA20684069E16B34
:101A6000C0F38010090700D428B3204601F0FDF927
:101A70002068416949061AD5416921F04001416158
:101A8000606BA0B11B490165606BFEF777FC002815
:101A900010D0606B016DBDE870400847830610D51B
:101AA0008B060ED52046BDE8704001F0F5B9204602
:101AB000FFF796FF70BD2046FFF792FF0020E0631E
:101AC00070BD030606D50B0604D52046BDE8704060
:101AD00001F0C2BA4006F3D54806F1D5D1682046D8
:101AE00021F04001D160202184F8391000F076F90E
:101AF00070BD0000CB2D000870B5040004D094F830
:101B00003900002510B106E0012070BD84F838507E
:101B1000204600F023F8242084F839002068C168AA
:101B200021F40051C160204601F002FA20680169E9
:101B300021F4904101612068416921F02A0141614D
:101B40002068C16841F40051C160E563202084F839
:101B5000390084F83A00002070BD000070B586B0EE
:101B6000064614216846FEF76BFB2349306888421D
:101B700040D122480025016841F40031016000682D
:101B800000F4003005901D481038016841F0010153
:101B900001600068694600F0010005900C2000908B
:101BA0000220CDE90105032003900720049014488A
:101BB000FEF77EFD144C134820604FF00060C4E92E
:101BC00001054014C4E9035080106561C4E9065062
:101BD000256220466562FEF7B7FC08B1FEF7CDFB33
:101BE0007463002211462620A663FFF77DFA2620A3
:101BF000FFF76CFA06B070BD004400404038024068
:101C0000000002408860024074010020F8B50446DC
:101C100090F83A0020283CD1C1B3BAB394F8380008
:101C2000012836D0012084F83800A162A285002561
:101C3000E563222084F83A00636B1748D863636B2E
:101C400016481864636B1648D864606B13460565C4
:101C50000846666B216802463046091DFEF7DEFC29
:101C6000206801684168009184F83850C16841F4E7
:101C70008071C1602068416941F0010141612068C3
:101C8000416941F0400141610020F8BDFFE70120BA
:101C9000FBE70220F9E70000252E0008612E00086E
:101CA000DB2D000870B51B490068096888422FD1F8
:101CB000194D012005F10C04E8702078432827D144
:101CC000E078452824D16078144E00F00101A97015
:101CD000C0F380022A714FF480513046FEF7B7FD01
:101CE00060784FF40051C0F3C0026A713046FEF7CD
:101CF000AEFD60784FF48041C0F340022A70A878AE
:101D0000012800D0AA793046FEF7A1FDA0786870BE
:101D100070BD0000B400002000000020000C024054
:101D200070472DE9F843044690F839001F461646DF
:101D30000D46202850D1B5B1AEB194F83800012835
:101D40004AD0012084F838004FF00008C4F83C80E5
:101D5000212084F83900FEF77FFDA6848146E684C1
:101D600084F8388026E00120BDE8F883E08C401E2E
:101D7000E084A0684B46B0F5805F4FF000024FF062
:101D800080012046009703D001F097F9E8B90DE0F3
:101D900001F093F9C8B928882168C0F308004860A9
:101DA000206908B16D1C05E0AD1C03E0216815F841
:101DB000010B4860E08C0028D8D14B46002240211E
:101DC0002046009701F079F908B10320CCE72020E4
:101DD00084F839000020C7E70220C5E77047FEE716
:101DE0000148FEF741BD00002000002010B5806BC7
:101DF00090F83D20436B002103B1D963836B03B19D
:101E0000D96303681C6824F480641C604185436BBB
:101E100003B11965836B03B1196503681C6824F06D
:101E200001041C6090F83D402023602C0BD0282436
:101E300034EA02020FD080F83D3080F83E1000BF37
:101E4000FEF73FFE10BD80F83D3080F83E10016483
:101E5000FEF708FD10BD0268136843F0010313602C
:101E60000268136843F480631360016380F83D40A7
:101E7000E6E7000070B5044690F83D0094F83E1087
:101E8000102906D1222804D121680A6822F40062B0
:101E90000A60282131EA00024FF000054FF02006C9
:101EA00026D021684968090503D4602801D084F848
:101EB0003D60256384F83E5020684168090537D5A8
:101EC000416821F400614160606B90F835203C4925
:101ED000012A11D00165606BFEF750FA38B3206813
:101EE000016821F00101016084F83D60606B1CE035
:101EF000256384F83D10DFE7A06B0165A06BFEF75A
:101F00003DFAA0B120684169C943490605D400697A
:101F1000616A0870606A401C60622068016821F094
:101F20000101016084F83D60A06B016D884710E0FD
:101F300094F83D10602910D04169C943490605D481
:101F40000069616A0870606A401C60622046FEF7A2
:101F5000B8FD206CC1071CD115E084F83D602564F4
:101F60004169C943490605D40069616A0870606A1D
:101F7000401C60622068016821F001010160204678
:101F8000FEF770FCE5E7810703D4410701D40007A1
:101F900004D52068416821F4E061416094F83D0077
:101FA000216C49070BD5282809D10648E062256332
:101FB00084F83D6084F83E502046FEF747FE70BD31
:101FC000ED1D00080000FFFF01684A69D243520579
:101FD0000FD46FF480624A61002140F8301F202244
:101FE00042738173026942F00402026101730120AD
:101FF00070470020704710B5C26A438D0168042BFA
:1020000006D0438D032B08D0438D022B1DD012E048
:102010004A6822F480624A600CE04B6823F48063D3
:102020004B60042A06D0022A04D001680A6822F410
:1020300080620A6001680969426A1170416A491C3C
:102040004162418D491E418510BD012A30D0102AC0
:102050002ED0042A30D0022A2ED00A6842F4007210
:102060000A6001680969426A1170416A491C41624B
:10207000428D521E4285026812690A70416A491CEB
:102080004162418D491E418501684A6822F44072CF
:102090004A60202180F83D1090F83E200021402A1F
:1020A00080F83E100CD012210163FEF7D0FD10BD68
:1020B0000A6822F48062D3E70A6842F48062CFE7BC
:1020C0000163FEF74DFF10BD10B590F83D102229B9
:1020D00014D1418D032912D901680969426A11702E
:1020E000416A491C4162418D491E4185418D032948
:1020F00004D10068416821F48061416010BDC26A6A
:10210000022AFBD0012901D00029F7D101680A6811
:1021100022F480620A6001684A6822F4E0624A6040
:1021200001680969426A1170416A491C4162418D26
:10213000491E4185202180F83D1090F83E20002165
:10214000402A80F83E1004D012210163FEF77FFD83
:1021500010BD0163FEF704FF10BD00002DE9F84F2C
:102160000446C06A1E4693460D4621680A6842F43A
:1021700080620A60082807D0012805D010F5803F4A
:1021800002D0206B112804D12068016841F48071CD
:1021900001604FF001195B46002249462046009637
:1021A00000F022FB4FF4007840B120680068C005C1
:1021B00001D5C4F840800320BDE8F88F2069DFF81E
:1021C00084A0B0F5804F0FD00620216800EAD51713
:1021D00047F0F000086133465A460AF106012046EE
:1021E00000F036FB58BB03E0E8B240F001001CE011
:1021F0002168E8B2086133465A465146204600F04D
:1022000027FBE0B92068416981690091016841F4C8
:10221000807101605B46002249462046009600F02E
:10222000E3FA0028C1D147F0F10021680861334684
:102230005A465146204600F00BFB0028BCD0012036
:10224000BAE7000002000100F8B50446C06A1E4665
:102250000D461746082807D0012805D010F5803F05
:1022600002D0206B122804D12068016841F48071EB
:102270000160134600224FF001112046009600F045
:10228000B3FA40B120680068C00502D54FF4007071
:1022900020640320F8BD2069B0F5804F0ED00620E1
:1022A000216800EAD51040F0F000086133463A4654
:1022B0000B49204600F0CCFA78B902E005F0FE00A8
:1022C00000E0E8B221680861054933463A46891FB3
:1022D000204600F0BDFA0028DCD00120F8BD000047
:1022E0000800010010B5C26A90F83D10212907D0FE
:1022F00090F83E1040290FD1BDE8104000F06AB9B7
:10230000418D51B1416A026809781161416A491CE5
:102310004162418D491E418510BD20230021082ABC
:1023200013D0202A11D012F5803F0ED002685468D5
:1023300024F4E06454601122026380F83E1080F8B7
:102340003D3000BFFEF784FC10BD0268546824F4E1
:10235000E06454600268146844F40074146001631B
:1023600080F83D3090F83E2080F83E10402AE9D1B8
:10237000FEF7F7FD10BD000010B590F83D1090F885
:102380003E30C26A048DB4B1212903D0402B11D153
:1023900022290FD1418DE1B390F83E10402942D05F
:1023A000416A026809781161416A491C4162418DA4
:1023B000491E418510BD2129E8D120230021082A8A
:1023C00013D0202A11D012F5803F0ED00268546835
:1023D00024F4E06454601122026380F83E1080F817
:1023E0003D3000BFFEF734FC10BD0268546824F491
:1023F000E06454600268146844F40074146001637B
:1024000080F83D3090F83E2080F83E10402AE9D117
:1024100000E002E0FEF7A5FD10BD0068416821F470
:102420008061416010BDBDE8104000F0D3B80000ED
:1024300078B590F83E50C26A036B90F83D60002476
:102440000168222E7AD1066D0EB9402D76D0056D29
:102450001DB90569B5F5404F09D0458D05B3468DC9
:10246000384D012E0ED0438D022B3AD05DE04A69E3
:102470008A6900920A6842F480720A60016D491C00
:10248000016578BDAA4213D10A6822F480620A600D
:1024900001684A68120503D50A6822F4806216E0D2
:1024A0004A698A6900920A6842F400720A6039E057
:1024B000082A10D0202A0ED0122B0AD0042A03D0CA
:1024C000022A01D0102AE7D10A6842F480620A6029
:1024D00024E0012AE0D00A6822F480620A600168E0
:1024E000DEE7042A21D0022A1FD0102A1DD00B6853
:1024F00023F480630B6001680B6843F400630B6096
:1025000001684B681B0509D5AA4212D0012A10D0D8
:10251000082A0ED0102A0CD0202A0AD001684A6955
:1025200089690091046578BD08E00B6843F4806315
:10253000E5E74A6842F480524A60EFE748698869F3
:102540000090F0E70000FFFF90F83E10402910D007
:102550000169B1F5804F19D0016DA9B3016D012951
:1025600010D1416C5FF0F10201F4407142EAD111E7
:1025700006E0016D0029416C05D0C9B241F00101AE
:1025800000680161704701F0FE01F9E790F83D1025
:102590002129416C09D0C9B241F0010102681161E1
:1025A000416B29B1C96B49B902E001F0FE01F5E7C1
:1025B000816B0029E6D0C96B0029E3D0006841682F
:1025C00041F4006141607047FFE7416CF02201F483
:1025D0004071CBE7016DC1B1016D012923D0016DBF
:1025E000022911D190F83D10222923D090F83D10F6
:1025F000212909D1416A026809781161416A491C9F
:102600004162418D491E41857047C16C0129816C31
:1026100002D0C1F3072108E00268C9B21161016D5F
:10262000891C01657047816CC9B202681161016D36
:10263000491CF6E70068016841F480710160704749
:10264000F8B590F83D6004460068416821F4E06107
:1026500041602068002541690091016841F0010155
:1026600001602068016821F4806101602068416890
:10267000090520D5474F222E48D02A2E46D0616B1F
:10268000096849686185618D19B1216C41F00401C7
:102690002164416821F400614160606BFDF780FEB8
:1026A000012808D0606B0765606BFDF767FE10B10D
:1026B000606B016D8847608D08B320684169C9432C
:1026C000490708D40069616A0870606A401C60624A
:1026D000608D401E608520684169C943490608D461
:1026E0000069616A0870606A401C6062608D401E0B
:1026F0006085608D18B1206C40F004002064206C6F
:1027000000B32046BDE8F840FFF7B4BBA16B0968F1
:1027100049686185618D19B1216C41F00401216422
:10272000416821F400614160A06BFDF739FE01288A
:10273000C1D0A06B0765A06BFDF720FE0028BAD0C2
:10274000A06BB6E72A2E06D12563282084F83D0029
:102750002046FEF75FFC94F83D10202028290DD07C
:10276000216B222901D0222E07D1256384F83D0058
:1027700084F83E502046FEF74DFCF8BD0649E16264
:10278000256384F83D0084F83E502046FEF75EFA4B
:10279000F8BD0000ED1D00080000FFFF70B51646F3
:1027A0000D4604460DE02046FFF70EFC08B101205F
:1027B00070BD681C05D0FEF74FF8801BA84207D8F3
:1027C00035B120684069C0434007ECD4002070BD9B
:1027D000002044F8300F20216173A073216941F07B
:1027E000200121612073E2E72DE9F0471E46904663
:1027F0000D460446C1F30747DDF8209008E0701C41
:1028000006D0FEF729F8A0EB0900B0420FD876B148
:102810002068012F18D0806925EA00000004000C10
:1028200014D000214145EAD00020BDE8F087002007
:1028300044F8300F20216173A073216941F0200119
:10284000216120730120F0E74069E5E70121E9E714
:102850002DE9F0479A4691460E46044600254FF072
:102860002008C1F3074725E020684069C0434005C0
:1028700014D42068016841F40071016021686FF48C
:1028800080604861256384F83D8084F83E50206C68
:1028900040F00400206484F83C501FE0B9F1FF3F91
:1028A00008D0FDF7D9FFA0EB0A0149450CD8B9F1D2
:1028B000000F09D02068012F13D0806926EA00009C
:1028C0000004000C0BD0CFE744F8305F84F80D8093
:1028D000A573206940F02000206125730120BDE828
:1028E000F0874069EAE72DE9F041002590460E4661
:1028F0000446202717E04069C043C0060CD454F8B2
:10290000301B6FF01000486144F810596777A577C5
:10291000206A2062257717E0FDF79EFFA0EB0800F4
:10292000B04208D83EB120684169C9434906E2D4A3
:102930000020BDE8F08144F8305F6773A57320691B
:1029400040F02000206125730120F2E770B51646A3
:102950000D4604460DE02046FFF736FB08B1012086
:1029600070BD681C05D0FDF777FF801BA84207D813
:1029700035B120684069C0430006ECD4002070BD2A
:10298000002044F8300F20216173A073216941F0C9
:10299000200121612073E2E770B586B014216846FA
:1029A000FDF74EFC26480024016841F080010160DB
:1029B000016801F080010591016841F001010160A9
:1029C000016801F001010591016841F00801016011
:1029D000016801F008010591016841F004010160FE
:1029E000016801F004010591016841F002010160F4
:1029F0000068144E00F002004FF47045059000226C
:102A000029463046FDF723FF4FF44060CDE900042E
:102A1000694630460294FDF74BFE01200095CDE952
:102A20000104694630460394FDF742FEC020CDE91B
:102A30000004694604480294FDF73AFE06B070BDF2
:102A400030380240000C02400008024010B58EB041
:102A500000240794089409940A940B941C21684656
:102A60000C94FDF7EDFB15484FF0804101606421A7
:102A7000C0E90114C0E903148461FEF751FE4FF46C
:102A80008050079007A90D48FEF778FE0B48FEF727
:102A90006FFF0B940BA909480C94FEF703FE60200E
:102AA000CDE9000402940422694604480494FEF728
:102AB000F7FE0248FEF7CEFE0EB010BD74000020F7
:102AC000FEE7704770477047FEF7A6BA30B593B07F
:102AD00030216846FDF7B4FB14210CA8FDF7B0FBCC
:102AE00018480025016841F080510160006800F03D
:102AF000805011901448016841F440410160006821
:102B0000022400F440401190012000900004019044
:102B10008001CDE9064008200890C820CDE90904CD
:102B200004200B906846FEF7FBFB0CA90F2081E800
:102B30003100E0020F90109003210CA8FEF706FB75
:102B400013B030BD403802400070004005480168B5
:102B500041F47001016003494FF000608039086062
:102B60007047000088ED00E0F0B502681D4B1E4C78
:102B70009F031E4D1E4E984207D0B84205D0A0427A
:102B800003D0A84201D0B04204D122F0700C4A68B0
:102B900042EA0C02984210D0B8420ED0A0420CD0AB
:102BA000A8420AD0B04208D0124CA04205D0124C24
:102BB000A04202D0114CA04203D122F44074CA6852
:102BC00022434C6922F08002224302608A68C2627A
:102BD0000A688262984201D1096901630121416159
:102BE000F0BD00000000014000040040000800406B
:102BF000000C0040004001400044014000480140FA
:102C000010B501F01F030121046A99408C4304624E
:102C1000016A9A401143016210BD10B5846842EA0E
:102C2000032224F47F440A432243826010BD826859
:102C300022F070020A4342F00701816070470000F1
:102C400030B5026A22F001020262026A43688469B6
:102C500024F073050C682C4322F002058A682A438D
:102C60000A4DA8420BD122F00805CA6823F440732C
:102C70002A434D6922F004021D438B692B434360B4
:102C8000846149684163026230BD00000000014078
:102C900030B5026A22F010020262026A4368846957
:102CA0000D6824F4E64444EA05248D6822F02002ED
:102CB00042EA05120B4DA8420ED1CD6822F08002E7
:102CC00042EA05124D6923F4406343EA85038D69A6
:102CD00022F0400243EA85034360846149688163CE
:102CE000026230BD0000014030B5026A22F48072F9
:102CF0000262036A4268C46923F4007324F0730516
:102D00000C682C438D6843EA05230C4DA8420ED174
:102D1000CD6823F4006343EA05234D6922F4405251
:102D200042EA05128D6923F4806342EA051242608B
:102D3000C4614968C163036230BD00000000014006
:102D400030B5026A22F480520262046A4268C369A2
:102D50000D6823F4E64343EA05238D6824F4005408
:102D600044EA0534064DA84204D14D6922F480425C
:102D700042EA85124260C36149680164046230BD61
:102D80000000014010B5036A046A24F001040462E3
:102D9000846924F0F00444EA021423F00A020A438E
:102DA0008461026210BD10B5036A23F01003036250
:102DB0008369046A23F4704343EA023224F0A003D7
:102DC00043EA01118261016210BD10B5806B0021E0
:102DD000C185C184FEF704FE10BD70B5846B206808
:102DE000406994F83910C0F3C0100025212904D19E
:102DF00018B1E584204600F046F82068406994F850
:102E00003A10C0F38010222904D118B1E58520467C
:102E100000F02BF8E06B40F01000E0632046FEF776
:102E2000DFFD70BD10B50146806B09680968C905F2
:102E300013D40021C1850168CA6822F48072CA6077
:102E400001684A6922F001024A6101684A6922F078
:102E500040024A61202180F83A10FEF723FF10BD9E
:102E600010B5806BFEF75CFF10BD0168CA6822F4E4
:102E70009072CA6001684A6922F001024A61202109
:102E800080F83A1070470168CA6822F0C002CA6030
:102E9000202180F83910704710B590F83A10222997
:102EA00001D0022010BD8168B1F5805F11D00169A9
:102EB000002901681FD0496801F07F03816A4A1C1C
:102EC00082620B70C18D491E0904090CC18518D09E
:102ED0002BE00269816A002A0268526805D0D2B2EA
:102EE0000A80816A491C8162ECE7C2F308020A8009
:102EF000816A891CF7E74A68816A4B1C83620A7001
:102F0000E0E70168CA6822F02002CA600168CA6866
:102F100022F48072CA6001684A6922F001024A61A3
:102F2000202180F83A10FEF7BDFE002010BD000001
:102F30002DE9F041044600680169E26821F440513E
:102F4000114301612169A068E26908436169114385
:102F500008432168CA6849F20C639A430243CA6075
:102F600020684169A26921F4407111434161E0691F
:102F7000192764253226B0F5004F354A35492068B7
:102F80004FF0000806D0884201D0904236D1FEF7BB
:102F900087F935E0884201D0904202D1FEF780F9EE
:102FA00001E0FEF76DF961684A18A0FB070148EBE4
:102FB0000803FDF70DF90146B0FBF5F00201B1FB86
:102FC000F5F06FF01803584301EB800006EBC000EA
:102FD000B0FBF5F000F0F80002EB4002B1FBF5F0B9
:102FE000584301EB800006EBC000B0FBF5F000F0A9
:102FF0000700216810448860BDE8F081FEF740F9C1
:1030000061688B0F8A00A0FB0701FDF7E1F801461C
:10301000B0FBF5F06FF01802504301EB800006EBB7
:103020000010B0FBF5F000F0F002B1FBF5F002EBA0
:103030000012B1FBF5F06FF01803584301EB80006C
:1030400006EB0010B0FBF5F000F00F00D1E7000038
:10305000001401400010014090F83910212901D0DE
:10306000022070478168B1F5805F016A0BD04A1C6D
:103070000262026809785160C18C491E0904090C7A
:10308000C1840ED017E009880268C1F308015160BD
:1030900001690029016A02D0491C0162ECE7891C20
:1030A000FBE70168CA6822F08002CA600068C16854
:1030B00041F04001C160002070472DE9F041984681
:1030C00017460E460446069D1DE0681C1BD02DB118
:1030D000FDF7C2FBA0EB0800A84214D92068C16824
:1030E00021F4D071C1602068416921F00101416182
:1030F000202084F8390084F83A00002084F8380051
:103100000320BDE8F0812068006836EA000004D0A2
:103110000020B842D9D00020F3E70120F9E70000F1
:103120000148FEF75FBC0000B4000020FEE709077D
:10313000090E002804DB00F1E02080F8001470473D
:1031400000F00F0000F1E02080F8141D704702E04D
:1031500008C8121F08C1002AFAD170477047002022
:1031600001E001C1121F002AFBD1704708B5FDF72D
:103170005BFFFFF7ABFCFFF70FFC7E480025016803
:1031800041F40011016000682A4600F4001000902C
:1031900029460B20FDF7A8FF0B20FDF797FF002223
:1031A00011461020FDF7A0FF1020FDF78FFF734898
:1031B000714901604FF4E131C0E901150C21C5608E
:1031C000C0E904518561C561FEF796FC6B486C4906
:1031D000943801606B49C0E901154FF48041C0E9A2
:1031E000035145618561C5610562FDF76BFCFFF721
:1031F0002DFC042264496148FEF708FD5F48042164
:103200004038FEF7D1FB604E5C480C3E4038717888
:1032100002689163DFF87491DFF874814FF4805A8B
:103220004FF4005B06F10807544871784038006895
:10323000816355480178432916D0C078452813D0BA
:103240004E49486B0068026822F001020260486B38
:1032500000680268D207FCD104224260486B006813
:10326000016841F00101016080214C464846FDF7AC
:10327000E9FAF07140212046FDF7E4FAB071024608
:10328000B078012800D132784FF480414046FDF7F4
:10329000DEFA3279514644464046FDF7D8FA727953
:1032A00059462046FDF7D3FA374A34483D700A2480
:1032B0000123121FB82194380094FDF7BBFD324A58
:1032C0002E483D700423121FB82194380094FDF756
:1032D000C1FC2A4C732040342070387860702C2058
:1032E000A0707978E1702071B9786171A071F87877
:1032F000E071257280214846FDF7A4FA18B1207AC2
:1033000040F00100207240214846FDF79BFA18B1B9
:10331000207A40F00200207251464046FDF792FAB2
:1033200018B1207A40F00400207259464046FDF75B
:1033300089FA18B1207A40F0080020724FF48041D9
:103340004046FDF77FFA18B1207A40F01000207255
:10335000707860723878B9780A2308440749A072F7
:103360000B2240310548FEF7DCFCF5706420FDF7C8
:103370008DF959E73038024000440040B400002085
:1033800000540040A08601000C000020000802400C
:10339000000C024000061016000610160000000087
:1033A00000000000010203040607080900000000F5
:1033B00001020304D43300080000002020000000B4
:1033C0004E310008F433000820000020B80500004A
:1033D0005E31000800000100000000000000000055
:1033E00000000000010000001000000000000000CC
:0433F0000024F400C1
:040000050800019955
:00000001FF
